:100000000C9475000C948A000C948A000C948A005D
:100010000C948A000C948A000C948A000C948A0038
:100020000C948A000C948A000C948A000C948A0028
:100030000C948A000C948A000C948A000C948A0018
:100040000C948A000C948A000C948A000C948A0008
:100050000C948A000C948A000C948A000C948A00F8
:100060000C948A000C948A0007634236B79BD8A789
:100070001A39685618AEBAAB558C1D3CB7CC5763CD
:10008000BD6DEDFD753EF6177231BF000000803F7B
:1000900008000000BE922449123EABAAAA2ABECD97
:1000A000CCCC4C3E00000080BEABAAAAAA3E000009
:1000B0000000BF000000803F000000000008417801
:1000C000D3BB4387D1133D190E3CC3BD4282AD2B38
:1000D0003E68EC8276BED98FE1A93E4C80EFFFBE30
:1000E00001C4FF7F3F000000000011241FBECFEFBE
:1000F000D8E0DEBFCDBF11E0A0E0B1E0EEE7F4E173
:1001000002C005900D92A434B107D9F70E943906B8
:100110000C943D0A0C9400000F931F93CF93DF9330
:10012000DC01FA015FB7F894EB013881922F9095CA
:10013000392338838C9198239C9330E840E02AC07F
:1001400081E0890F9D3318F05FBF81E029C0D5E0C1
:10015000DA95F1F70000982F01C090E080818223AA
:1001600079F380EA8A95F1F78081822309F0432BA5
:1001700090E00CC081E0890F9D3318F05FBF81E0F3
:100180000FC095E09A95F1F70000982F80818223A7
:1001900089F736953111E1CFE80148835FBF80E0F0
:1001A000DF91CF911F910F9108952F923F924F921F
:1001B0005F926F927F928F929F92AF92BF92CF92F7
:1001C000DF92EF92FF920F931F93CF93DF9300D0B4
:1001D00000D01F92CDB7DEB79FB7823008F0A7C01E
:1001E000DA01FC91E02FE095FE23FC93DB01FC910A
:1001F000FE23FC93DA01FC91F02BFC93813039F45F
:10020000AFECB7E01197F1F700C0000009C0BFEFF5
:10021000F0EEA0E0B150F040A040E1F700C00000D7
:10022000F894DA01FC91EF23EC93E7E1F1E03197E8
:10023000F1F700C00000D9015C90502221F09FBF6F
:10024000552453947EC0EFE3F1E03197F1F700C0FD
:100250000000D901EC91E02321F49FBF5524539471
:1002600070C0402E39015A014B01382E9FBFB5EDA9
:10027000BA95F1F70000212C0FC001E010E00C0F3F
:100280001D1F020D111D242DA301B501C4010E94E3
:100290008C00811151C02394E4E0E21570F780E0F6
:1002A00090E009C0E1E0F0E0EC0FFD1FE80FF11D68
:1002B0002081920F8F5F8430A8F38D8198133EC008
:1002C000F1E03F1213C0898190E0982F88272A819E
:1002D000822BD6018D939C938B8190E0982F882759
:1002E0002C81822BF701918380832BC0898190E040
:1002F0009C01220F331F880F991F880F991F880FA9
:10030000991F820F931FD6018D939C938B8190E050
:100310009C01220F331F880F991F880F991F880F88
:10032000991F820F931FF701918380830AC00F2EBC
:10033000F3E05F2EF02D05C0582E03C068945524BD
:1003400051F8852D0F900F900F900F900F90DF9127
:10035000CF911F910F91FF90EF90DF90CF90BF90C2
:10036000AF909F908F907F906F905F904F903F9055
:100370002F9008950F939FB78230A0F5DA01FC917A
:10038000E02FE095FE23FC93DB01FC91FE23FC9320
:10039000DA016C91602B6C93813039F4AFECB7E0EB
:1003A0001197F1F700C0000009C0BFEFF0EE60E068
:1003B000B150F0406040E1F700C00000F894DA016D
:1003C0008C91E823EC93E7E1F1E03197F1F700C07D
:1003D0000000D9018C91802319F09FBF81E003C0F8
:1003E0009FBF01C083E00F910895662321F095B16E
:1003F000916095B903C095B19E7F95B9882324F487
:1004000095B1906295B903C095B19F7D95B986FF6E
:1004100004C095B1906195B903C095B19F7E95B91F
:1004200085FF04C095B1986095B903C095B1977FD9
:1004300095B984FF04C095B1946095B903C095B196
:100440009B7F95B900C095B1926095B992E09A955D
:10045000F1F700C095B19D7F95B983FF04C095B1B8
:10046000906295B903C095B19F7D95B982FF04C094
:1004700095B1906195B903C095B19F7E95B981FF03
:1004800004C095B1986095B903C095B1977F95B9AF
:1004900080FF04C095B1946095B903C095B19B7F6E
:1004A00095B900C095B1926095B992E09A95F1F72F
:1004B00000C095B19D7F95B995B1906295B995B100
:1004C000906195B995B1986095B995B1946095B9D9
:1004D000611109C0843038F48FE999E10197F1F78F
:1004E00000C00000089595ED9A95F1F70000089579
:1004F00060E00E94F501089580580E9478020895F6
:1005000081E00E947802089561E00E94F50108955B
:10051000CF93DF93FC0103C00E948402FE01EF0130
:10052000219680818111F8CFDF91CF91089584B118
:10053000826084B984B1816084B984B1806284B9F5
:1005400084B1806184B984B1886084B984B18460E5
:1005500084B985B18D7F85B985B18E7F85B985B127
:10056000806285B985B1806185B985B1886085B9BA
:1005700085B1846085B98FE59AEE0197F1F700C0E7
:10058000000085B18F7D85B985B18F7E85B900C0AA
:1005900085B1826085B992E09A95F1F700C085B186
:1005A0008D7F85B98FE090E40197F1F700C00000DE
:1005B00085B1826085B992E09A95F1F700C085B166
:1005C0008D7F85B98FE891E00197F1F700C00000B9
:1005D00085B1826085B992E09A95F1F700C085B146
:1005E0008D7F85B985ED8A95F1F7000085B18B7F08
:1005F00085B900C085B1826085B992E09A95F1F71E
:1006000000C085B18D7F85B985ED8A95F1F7000031
:1006100085B18B7F85B900C085B1826085B992E0D4
:100620009A95F1F700C085B18D7F85B982E08A95F2
:10063000F1F700C085B1806285B900C085B18260E4
:1006400085B992E09A95F1F700C085B18D7F85B9A3
:1006500085ED8A95F1F7000088E00E9478020E94FB
:10066000800286E00E9478028CE00E947802089561
:1006700097E19A95F1F708950895359B0C943D0301
:10068000A89408950895359B0E943D033C9A0E94CA
:1006900038030E947003089581E008953D9A0E94F6
:1006A00038033C980E9438033D980E943803359BDC
:1006B0000E943D033C9A0E9438030E9470030895F3
:1006C00081E008953D9A3C9A0E9438033D980E942B
:1006D0003803359B0E943D033C980E9438030895DF
:1006E0000894881F0C947503880FF1F03D9A000060
:1006F0000000000020F400003C980C9482033C9A17
:100700000C9482030E9438033D98A89400000000D6
:100710000000359B0E943D031AF488270C94A70320
:100720000E9438030C9474033D9A000000003C982A
:100730000E943803992788273D98A8940000359B8C
:100740000E943D0352F3349B81E00E943803000075
:1007500000003D9A089581E0089571E03D9A3C982B
:100760000000000000000E9438033D980E943803FA
:10077000A894000000000000359B0E943D03D2F0C9
:10078000889434990894771F48F73D9A803019F07F
:100790003C980C94CC033C9A0000000000000E949E
:1007A00038033D98A89400000000359B0E943D034B
:1007B0000E943803000000003D9A872F9927089572
:1007C00080E2089521E08030920721F48BB18062AD
:1007D0008BB908958450914019F48BB180618BB925
:1007E000089521E08030920721F48BB18F7D8BB981
:1007F00008958450914019F48BB18F7E8BB9089580
:1008000080599140823D910538F4643021E07207AF
:100810001CF4643B7105C4F5823D9105A8F09B0171
:10082000245B31092035310578F08FE00E947C028D
:100830008AE091E00E9488028FE40E947C028AE0B4
:1008400091E00E94880217C0645B710960357105F0
:1008500040F08FE00E947C028AE091E00E948802D2
:100860000AC0823D910538F08FE40E947C028AE044
:1008700091E00E94880284E091E00E94F10380E010
:1008800091E00E94E203089584E091E00E94E20377
:1008900080E091E00E94F1030895CF92DF92EF9201
:1008A000FF920F931F93CF93DF93CDB7DEB72E97B1
:1008B0000FB6F894DEBF0FBECDBF04E029E230E0F2
:1008C0004AE250E06BE270E080E00E94BA012FEF54
:1008D00083ED90E3215080409040E1F700C000009C
:1008E000CE0103966C0102977C0129E230E04AE2D6
:1008F00050E06BE270E080E00E94D5000E94800230
:100900008CE091E00E94880289819A810AE010E0DF
:10091000B8010E94E009CB014AE0BE016B5F7F4F46
:100920000E94080ACE0105960E94880283E191E0A8
:100930000E9488028B819C81B8010E94E009CB0152
:100940004AE0BE016B5F7F4F0E94080A80E40E946C
:100950007C0286E191E00E948802CE0105960E9409
:1009600088028DE191E00E94880269817A818B8101
:100970009C810E9400042E960FB6F894DEBF0FBE35
:10098000CDBFDF91CF911F910F91FF90EF90DF903E
:10099000CF9008956150710920E030E00EC0DC0175
:1009A000A20FB31F4C91FC01E60FF71F50815C931F
:1009B00040832F5F3F4F61507109261737077CF343
:1009C00008950F931F93CF93DF938B019A01C0E09B
:1009D000D0E00CC0F801EC0FFD1F6AE070E00E944F
:1009E000E009805D8083862F972F2196009791F7ED
:1009F00006C0F801EC0FFD1F80E380832196C2172B
:100A0000D307BCF3BE01C8010E94CA04F801EC0F71
:100A1000FD1F1082CE01DF91CF911F910F9108959C
:100A20004F925F926F927F928F929F92AF92BF92FE
:100A3000EF92FF920F931F93CF93DF932B013C0113
:100A40007A0189010E94B8064B015C01072E000C57
:100A5000880B990B0E94F0069B01AC01C301B20107
:100A60000E944B062B013C0140E050E0B701C4015D
:100A70000E94E104EC010115110529F1F701E80FCD
:100A8000F91F8EE28083B801012E000C880B990BB0
:100A90000E94F0069B01AC0160E070E080E291E40E
:100AA0000E94E9079B01AC01C301B2010E947C07CF
:100AB0002196CE0DDF1D0E94B806DC01CB01A801F6
:100AC000BE010E94E104DF91CF911F910F91FF9031
:100AD000EF90BF90AF909F908F907F906F905F90BE
:100AE0004F900895EF92FF921F93CF93DF93CDB76E
:100AF000DEB72A970FB6F894DEBF0FBECDBF84EBEA
:100B00000E94430387E00E94700385EB0E944E031E
:100B100080E00E94AD03E82EF12C80E00E94AD033E
:100B2000182F81E00E94AD030E9462031F77612F9E
:100B300070E0762F66276E0D7F1D072E000C880B48
:100B4000990B0E94F0062AE037ED43EA5CE30E942D
:100B50007C072AE037ED43E25CE30E944B0623E387
:100B600033E948E853E40E944B0621E030E0AE014F
:100B70004F5F5F4F0E9410050E948002CE010196D8
:100B80000E94880283E191E00E9488022FEF83EDAA
:100B900090E3215080409040E1F700C000002A9689
:100BA0000FB6F894DEBF0FBECDBFDF91CF911F917E
:100BB000FF90EF9008950E94800280E291E00E94F1
:100BC000880280E40E947C028FE291E00E94880209
:100BD00084E091E00E94F10380E091E00E94F10343
:100BE0002FEF83ED90E3215080409040E1F700C06B
:100BF00000000E9480028BE391E00E94880284E062
:100C000091E00E94E2032FEF83ED90E321508040BA
:100C10009040E1F700C000008EE391E00E9488025E
:100C200084E091E00E94F10380E091E00E94E20301
:100C30002FEF83ED90E3215080409040E1F700C01A
:100C4000000081E491E00E94880280E091E00E942F
:100C5000F10384E091E00E94E2032FEF83ED90E343
:100C6000215080409040E1F700C000000E947205D2
:100C7000089580E38AB98AB1877F8AB98BB1886089
:100C80008BB90E9497024B9B03C00E944D04FBCF7F
:100C90000E94DB05F8CF5058BB27AA270E946306A5
:100CA0000C9442070E94340738F00E943B0720F062
:100CB00039F49F3F19F426F40C9431070EF4E095B3
:100CC000E7FB0C942B07E92F0E94530758F3BA1740
:100CD000620773078407950720F079F4A6F50C9452
:100CE00075070EF4E0950B2EBA2FA02D0B01B9015C
:100CF00090010C01CA01A0011124FF27591B99F092
:100D0000593F50F4503E68F11A16F040A22F232F9D
:100D1000342F4427585FF3CF469537952795A795ED
:100D2000F0405395C9F77EF41F16BA0B620B730B94
:100D3000840BBAF09150A1F0FF0FBB1F661F771F05
:100D4000881FC2F70EC0BA0F621F731F841F48F4BA
:100D5000879577956795B795F7959E3F08F0B0CF43
:100D60009395880F08F09927EE0F9795879508952A
:100D70000E94BF066894B1110C94760708950E94F2
:100D80005B0788F09F5798F0B92F9927B751B0F0BB
:100D9000E1F0660F771F881F991F1AF0BA95C9F7FF
:100DA00014C0B13091F00E947507B1E008950C9421
:100DB0007507672F782F8827B85F39F0B93FCCF3D4
:100DC000869577956795B395D9F73EF4909580957C
:100DD000709561957F4F8F4F9F4F0895E89409C09C
:100DE00097FB3EF490958095709561957F4F8F4F5E
:100DF0009F4F9923A9F0F92F96E9BB279395F69574
:100E0000879577956795B795F111F8CFFAF4BB0FF1
:100E100011F460FF1BC06F5F7F4F8F4F9F4F16C055
:100E2000882311F096E911C0772321F09EE8872FDF
:100E3000762F05C0662371F096E8862F70E060E09B
:100E40002AF09A95660F771F881FDAF7880F969514
:100E5000879597F9089597F99F6780E870E060E0BB
:100E600008959FEF80EC089500240A941616170643
:100E700018060906089500240A941216130614068B
:100E800005060895092E0394000C11F4882352F0EE
:100E9000BB0F40F4BF2B11F460FF04C06F5F7F4FA6
:100EA0008F4F9F4F089557FD9058440F551F59F08D
:100EB0005F3F71F04795880F97FB991F61F09F3F47
:100EC00079F087950895121613061406551FF2CF70
:100ED0004695F1DF08C0161617061806991FF1CFC0
:100EE00086957105610508940895E894BB276627E7
:100EF0007727CB0197F908950E948F070C9442073A
:100F00000E94340738F00E943B0720F0952311F02F
:100F10000C942B070C94310711240C9476070E9433
:100F2000530770F3959FC1F3950F50E0551F629FD3
:100F3000F001729FBB27F00DB11D639FAA27F00D32
:100F4000B11DAA1F649F6627B00DA11D661F829F59
:100F50002227B00DA11D621F739FB00DA11D621F3E
:100F6000839FA00D611D221F749F3327A00D611D5B
:100F7000231F849F600D211D822F762F6A2F11243D
:100F80009F5750409AF0F1F088234AF0EE0FFF1F70
:100F9000BB1F661F771F881F91505040A9F79E3FC7
:100FA000510580F00C942B070C9476075F3FE4F317
:100FB000983ED4F3869577956795B795F795E7951D
:100FC0009F5FC1F7FE2B880F911D9695879597F926
:100FD0000895FA01EE0FFF1F309621053105A1F1AA
:100FE0006115710561F48038BFE39B0749F168948E
:100FF0009038810561F08038BFEF9B0741F099235D
:101000004AF5FF3FE1053105210519F1E8940894FF
:10101000E795D901AA2329F4AB2FBE2FF85FD0F3AF
:1010200010C0FF5F70F4A695E0F7F73950F019F0A3
:10103000FF3A38F49F779F930DD00F9007FC90589C
:10104000089546F00C94310760E070E080E89FE37B
:1010500008954FE79F775F934F933F932F930E949D
:10106000E4082F913F914F915F910E947C070C946F
:10107000410829F416F00C942B070C9475070C9476
:1010800031070E945B07A8F39638A0F707F80F9284
:10109000E8942BE33AEA48EB5FE70E9492070F924D
:1010A0000F920F924DB75EB70F920E942C09E8E69F
:1010B000F0E00E9473084F915F91EF91FF91E595E9
:1010C000EE1FFF1F49F0FE57E0684427EE0F441F54
:1010D000FA95E1F74195550B0E94A6080F9007FE7F
:1010E0000C949A080895DF93CF931F930F93FF9268
:1010F000EF92DF927B018C01689406C0DA2EEF013B
:101100000E948F07FE01E894A591259135914591A4
:101110005591A6F3EF010E946306FE019701A80115
:10112000DA9469F7DF90EF90FF900F911F91CF91C4
:10113000DF9108959B01AC0160E070E080E89FE3DF
:101140000C9460090C942B070C94D2090E945B0745
:10115000D8F39923C9F3940F511DA3F39150504034
:1011600094F059F0882332F0660F771F881F915052
:101170005040C1F79E3F51052CF7880F911D969561
:10118000879597F908955F3FACF0983E9CF0BB2798
:10119000869577956795B79508F4B1609395C1F7F3
:1011A000BB0F58F711F460FFE8CF6F5F7F4F8F4F91
:1011B0009F4FE3CF0C94760716F00C94D2090C9451
:1011C000310768940C942B070E945B07A8F39923BE
:1011D000C1F3AEF3DF93CF931F930F93FF92C92F09
:1011E000DD2788232AF02197660F771F881FDAF7FB
:1011F00020E030E040E85FEB9FE3883920F0803E5C
:1012000038F021968F770E944C06E0E9F0E004C0A8
:101210000E944C06EDEBF0E00E9473088B01BE01CA
:10122000EC01FB2E6F5771097595771F880B990B91
:101230000E94F00628E132E741E35FE30E948F0756
:10124000AF2D9801AE01FF900F911F91CF91DF91CB
:101250000E9463060C944207FA01DC01AA0FBB1F2F
:101260009B01AC01BF5728F422273327442750782D
:1012700020C0B75190F4AB2F0024469537952795A1
:10128000011CA395D2F3002071F0220F331F441FDD
:10129000B395DAF30ED00C944B0661307105A0E8DB
:1012A0008A07B94630F49B01AC0166277727882767
:1012B0009078309621F020833183428353830895C0
:1012C0000E9474090C9442070E943B0758F00E9448
:1012D000340740F029F45F3F29F00C942B0751119B
:1012E0000C9476070C9431070E94530768F39923F6
:1012F000B1F3552391F3951B550BBB27AA27621712
:101300007307840738F09F5F5F4F220F331F441F1E
:10131000AA1FA9F335D00E2E3AF0E0E832D0915052
:101320005040E695001CCAF72BD0FE2F29D0660F3F
:10133000771F881FBB1F261737074807AB07B0E882
:1013400009F0BB0B802DBF01FF2793585F4F3AF088
:101350009E3F510578F00C942B070C9476075F3F65
:10136000E4F3983ED4F3869577956795B795F7950E
:101370009F5FC9F7880F911D9695879597F90895F6
:10138000E1E0660F771F881FBB1F62177307840792
:10139000BA0720F0621B730B840BBA0BEE1F88F7A1
:1013A000E09508959F3F31F0915020F4879577950F
:1013B0006795B795880F911D9695879597F908952C
:1013C00097FB072E16F4009407D077FD09D00E94F2
:1013D000F40907FC05D03EF4909581959F4F089540
:1013E000709561957F4F0895AA1BBB1B51E107C003
:1013F000AA1FBB1FA617B70710F0A61BB70B881FA5
:10140000991F5A95A9F780959095BC01CD01089533
:10141000BB274A3031F4992322F4BDE2909581959F
:101420009F4F0C94140ABB27FB015527AA27880F4E
:10143000991FAA1FA41710F0A41B83955051B9F748
:10144000A05DAA3308F0A95DA193009779F7B111C7
:10145000B1931192CB010C942D0ADC01FC01672F92
:1014600071917723E1F7329704C07C916D9370837B
:0E1470006291AE17BF07C8F30895F894FFCF3E
:10147E0072656400677265656E00210054656D705B
:10148E003A200020430057696C673A20002025005F
:10149E0050727A797374617720637A6F6C6F00641F
:1014AE006F20637A756A6E696B610033200032209B
:0414BE0000310000F9
:00000001FF
