S01400005465726D6F6D6574725F534D2E7372656352
S11300000C9434000C9449000C9449000C9449005D
S11300100C9449000C9449000C9449000C94490038
S11300200C9449000C9449000C9449000C94490028
S11300300C9449000C9449000C9449000C94490018
S11300400C9449000C9449000C9449000C94490008
S11300500C9449000C9449000C9449000C944900F8
S11300600C9449000C94490011241FBECFEFD8E032
S1130070DEBFCDBF11E0A0E0B1E0E0E2F9E002C0F4
S113008005900D92A434B107D9F70E941F040C9473
S11300908E040C9400000F931F93CF93DF93DC0125
S11300A0FA015FB7F894EB013881922F90953923C8
S11300B038838C9198239C9330E840E02AC081E0F7
S11300C0890F9D3318F05FBF81E029C0D5E0DA9530
S11300D0F1F70000982F01C090E08081822379F32A
S11300E080EA8A95F1F78081822309F0432B90E01E
S11300F00CC081E0890F9D3318F05FBF81E00FC011
S113010095E09A95F1F70000982F8081822389F772
S113011036953111E1CFE80148835FBF80E0DF917C
S1130120CF911F910F9108952F923F924F925F921A
S11301306F927F928F929F92AF92BF92CF92DF92F3
S1130140EF92FF920F931F93CF93DF9300D000D0D1
S11301501F92CDB7DEB79FB7823008F0A7C0DA018F
S1130160FC91E02FE095FE23FC93DB01FC91FE2340
S1130170FC93DA01FC91F02BFC93813039F4AFEC61
S1130180B7E01197F1F700C0000009C0BFEFF0EE2F
S1130190A0E0B150F040A040E1F700C00000F894A6
S11301A0DA01FC91EF23EC93E7E1F1E03197F1F709
S11301B000C00000D9015C90502221F09FBF55245B
S11301C053947EC0EFE3F1E03197F1F700C00000F3
S11301D0D901EC91E02321F49FBF5524539470C0BE
S11301E0402E39015A014B01382E9FBFB5EDBA9507
S11301F0F1F70000212C0FC001E010E00C0F1D1FCF
S1130200020D111D242DA301B501C4010E944B0050
S1130210811151C02394E4E0E21570F780E090E08E
S113022009C0E1E0F0E0EC0FFD1FE80FF11D2081B3
S1130230920F8F5F8430A8F38D8198133EC0F1E054
S11302403F1213C0898190E0982F88272A81822B3E
S1130250D6018D939C938B8190E0982F88272C81D5
S1130260822BF701918380832BC0898190E09C01CC
S1130270220F331F880F991F880F991F880F991F0A
S1130280820F931FD6018D939C938B8190E09C01E8
S1130290220F331F880F991F880F991F880F991FEA
S11302A0820F931FF701918380830AC00F2EF3E01E
S11302B05F2EF02D05C0582E03C06894552451F8C4
S11302C0852D0F900F900F900F900F90DF91CF918D
S11302D01F910F91FF90EF90DF90CF90BF90AF9060
S11302E09F908F907F906F905F904F903F902F9052
S11302F008950F939FB78230A0F5DA01FC91E02FA7
S1130300E095FE23FC93DB01FC91FE23FC93DA01D0
S11303106C91602B6C93813039F4AFECB7E011979A
S1130320F1F700C0000009C0BFEFF0EE60E0B1508B
S1130330F0406040E1F700C00000F894DA018C91CD
S1130340E823EC93E7E1F1E03197F1F700C0000016
S1130350D9018C91802319F09FBF81E003C09FBF16
S113036001C083E00F910895662321F095B1916057
S113037095B903C095B19E7F95B9882324F495B1AE
S1130380906295B903C095B19F7D95B986FF04C06D
S113039095B1906195B903C095B19F7E95B985FFDC
S11303A004C095B1986095B903C095B1977F95B98C
S11303B084FF04C095B1946095B903C095B19B7F47
S11303C095B900C095B1926095B992E09A95F1F70C
S11303D000C095B19D7F95B983FF04C095B190622B
S11303E095B903C095B19F7D95B982FF04C095B1BD
S11303F0906195B903C095B19F7E95B981FF04C002
S113040095B1986095B903C095B1977F95B980FF70
S113041004C095B1946095B903C095B19B7F95B91B
S113042000C095B1926095B992E09A95F1F700C039
S113043095B19D7F95B995B1906295B995B190614B
S113044095B995B1986095B995B1946095B96111D4
S113045009C0843038F48FE999E10197F1F700C0BD
S11304600000089595ED9A95F1F70000089560E075
S11304700E94B401089580580E943702089581E0D3
S11304800E943702089561E00E94B4010895CF9359
S1130490DF93FC0103C00E944302FE01EF01219699
S11304A080818111F8CFDF91CF91089584B182606A
S11304B084B984B1816084B984B1806284B984B11F
S11304C0806184B984B1886084B984B1846084B95A
S11304D085B18D7F85B985B18E7F85B985B18062FF
S11304E085B985B1806185B985B1886085B985B1E3
S11304F0846085B98FE59AEE0197F1F700C000009A
S113050085B18F7D85B985B18F7E85B900C085B1F0
S1130510826085B992E09A95F1F700C085B18D7F2C
S113052085B98FE090E40197F1F700C0000085B130
S1130530826085B992E09A95F1F700C085B18D7F0C
S113054085B98FE891E00197F1F700C0000085B10B
S1130550826085B992E09A95F1F700C085B18D7FEC
S113056085B985ED8A95F1F7000085B18B7F85B952
S113057000C085B1826085B992E09A95F1F700C018
S113058085B18D7F85B985ED8A95F1F7000085B138
S11305908B7F85B900C085B1826085B992E09A9558
S11305A0F1F700C085B18D7F85B982E08A95F1F7B6
S11305B000C085B1806285B900C085B1826085B90B
S11305C092E09A95F1F700C085B18D7F85B985EDEC
S11305D08A95F1F7000088E00E9437020E943F02EA
S11305E086E00E9437028CE00E94370208950E9440
S11305F03F0280E091E00E94470280E40E943B02B7
S11306008FE091E00E9447022FEF87EA91E62150A4
S113061080409040E1F700C000000E943F028BE15F
S113062091E00E9447022FEF83ED90E32150804038
S11306309040E1F700C000008EE191E00E94470283
S11306402FEF83ED90E3215080409040E1F700C00C
S1130650000081E291E00E9447022FEF83ED90E3D6
S1130660215080409040E1F700C00000089521E04F
S11306708332920721F48BB180628BB9089587523B
S1130680914019F48BB180618BB9089521E08332D4
S1130690920721F48BB18F7D8BB9089587529140D5
S11306A019F48BB18F7E8BB9089580599140823DA6
S11306B0910538F4643021E072071CF4643B710541
S11306C0C4F5823D9105A8F09B01245B31092035D6
S11306D0310578F08FE00E943B028DE291E00E94A8
S11306E047028FE40E943B028DE291E00E944702A0
S11306F017C0645B71096035710540F08FE00E949A
S11307003B028DE291E00E9447020AC0823D9105BE
S113071038F08FE40E943B028DE291E00E94470290
S113072087E291E00E94460383E291E00E9437034E
S1130730089587E291E00E94370383E291E00E94EA
S113074046030895CF92DF92EF92FF920F931F9387
S1130750CF93DF93CDB7DEB72E970FB6F894DEBFF5
S11307600FBECDBF04E029E230E04AE250E06BE284
S113077070E080E00E9479012FEF83ED90E3215037
S113078080409040E1F700C00000CE0103966C0168
S113079002977C0129E230E04AE250E06BE270E02B
S11307A080E00E9494000E943F028FE291E00E9448
S11307B0470289819A810AE010E0B8010E9431045D
S11307C0CB014AE0BE016B5F7F4F0E945904CE010A
S11307D005960E94470286E391E00E9447028B81BE
S11307E09C81B8010E943104CB014AE0BE016B5FD9
S11307F07F4F0E94590480E40E943B0289E391E008
S11308000E944702CE0105960E94470280E491E0CF
S11308100E94470269817A818B819C810E945503E1
S11308202E960FB6F894DEBF0FBECDBFDF91CF91E9
S11308301F910F91FF90EF90DF90CF90089580E388
S11308408AB98AB1877F8AB98BB188608BB90E94D3
S113085056024B9B03C00E94A203FBCF0E94F702E7
S1130860F8CF97FB072E16F4009407D077FD09D034
S11308700E94450407FC05D03EF4909581959F4F56
S11308800895709561957F4F0895AA1BBB1B51E194
S113089007C0AA1FBB1FA617B70710F0A61BB70BEC
S11308A0881F991F5A95A9F780959095BC01CD0191
S11308B00895BB274A3031F4992322F4BDE2909580
S11308C081959F4F0C946504BB27FB015527AA27EC
S11308D0880F991FAA1FA41710F0A41B83955051C9
S11308E0B9F7A05DAA3308F0A95DA193009779F741
S11308F0B111B1931192CB010C947E04DC01FC0183
S1130900672F71917723E1F7329704C07C916D933F
S113091070836291AE17BF07C8F30895F894FFCFB0
S113092050727A797374617720637A6F6C6F0064A4
S11309306F20637A756A6E696B6100332000322020
S113094000310072656400677265656E00210054B1
S1130950656D703A200020430057696C673A2000A7
S1070960202500004A
S9030000FC
